{
    "_format": "hh-sol-artifact-1",
    "contractName": "MyEpicNFT",
    "sourceName": "contracts/MyEpicNFT.sol",
    "abi": [
        {
            "inputs": [],
            "stateMutability": "nonpayable",
            "type": "constructor"
        },
        {
            "anonymous": false,
            "inputs": [
                {
                    "indexed": true,
                    "internalType": "address",
                    "name": "owner",
                    "type": "address"
                },
                {
                    "indexed": true,
                    "internalType": "address",
                    "name": "approved",
                    "type": "address"
                },
                {
                    "indexed": true,
                    "internalType": "uint256",
                    "name": "tokenId",
                    "type": "uint256"
                }
            ],
            "name": "Approval",
            "type": "event"
        },
        {
            "anonymous": false,
            "inputs": [
                {
                    "indexed": true,
                    "internalType": "address",
                    "name": "owner",
                    "type": "address"
                },
                {
                    "indexed": true,
                    "internalType": "address",
                    "name": "operator",
                    "type": "address"
                },
                {
                    "indexed": false,
                    "internalType": "bool",
                    "name": "approved",
                    "type": "bool"
                }
            ],
            "name": "ApprovalForAll",
            "type": "event"
        },
        {
            "anonymous": false,
            "inputs": [
                {
                    "indexed": false,
                    "internalType": "address",
                    "name": "sender",
                    "type": "address"
                },
                {
                    "indexed": false,
                    "internalType": "uint256",
                    "name": "tokenId",
                    "type": "uint256"
                }
            ],
            "name": "NewEpicNFTMinted",
            "type": "event"
        },
        {
            "anonymous": false,
            "inputs": [
                {
                    "indexed": true,
                    "internalType": "address",
                    "name": "from",
                    "type": "address"
                },
                {
                    "indexed": true,
                    "internalType": "address",
                    "name": "to",
                    "type": "address"
                },
                {
                    "indexed": true,
                    "internalType": "uint256",
                    "name": "tokenId",
                    "type": "uint256"
                }
            ],
            "name": "Transfer",
            "type": "event"
        },
        {
            "inputs": [
                {
                    "internalType": "address",
                    "name": "to",
                    "type": "address"
                },
                {
                    "internalType": "uint256",
                    "name": "tokenId",
                    "type": "uint256"
                }
            ],
            "name": "approve",
            "outputs": [],
            "stateMutability": "nonpayable",
            "type": "function"
        },
        {
            "inputs": [
                {
                    "internalType": "address",
                    "name": "owner",
                    "type": "address"
                }
            ],
            "name": "balanceOf",
            "outputs": [
                {
                    "internalType": "uint256",
                    "name": "",
                    "type": "uint256"
                }
            ],
            "stateMutability": "view",
            "type": "function"
        },
        {
            "inputs": [
                {
                    "internalType": "uint256",
                    "name": "tokenId",
                    "type": "uint256"
                }
            ],
            "name": "getApproved",
            "outputs": [
                {
                    "internalType": "address",
                    "name": "",
                    "type": "address"
                }
            ],
            "stateMutability": "view",
            "type": "function"
        },
        {
            "inputs": [
                {
                    "internalType": "address",
                    "name": "owner",
                    "type": "address"
                },
                {
                    "internalType": "address",
                    "name": "operator",
                    "type": "address"
                }
            ],
            "name": "isApprovedForAll",
            "outputs": [
                {
                    "internalType": "bool",
                    "name": "",
                    "type": "bool"
                }
            ],
            "stateMutability": "view",
            "type": "function"
        },
        {
            "inputs": [],
            "name": "makeAnEpicNFT",
            "outputs": [],
            "stateMutability": "nonpayable",
            "type": "function"
        },
        {
            "inputs": [],
            "name": "name",
            "outputs": [
                {
                    "internalType": "string",
                    "name": "",
                    "type": "string"
                }
            ],
            "stateMutability": "view",
            "type": "function"
        },
        {
            "inputs": [
                {
                    "internalType": "uint256",
                    "name": "tokenId",
                    "type": "uint256"
                }
            ],
            "name": "ownerOf",
            "outputs": [
                {
                    "internalType": "address",
                    "name": "",
                    "type": "address"
                }
            ],
            "stateMutability": "view",
            "type": "function"
        },
        {
            "inputs": [
                {
                    "internalType": "uint256",
                    "name": "tokenId",
                    "type": "uint256"
                }
            ],
            "name": "pickRandomFirstWord",
            "outputs": [
                {
                    "internalType": "string",
                    "name": "",
                    "type": "string"
                }
            ],
            "stateMutability": "view",
            "type": "function"
        },
        {
            "inputs": [
                {
                    "internalType": "uint256",
                    "name": "tokenId",
                    "type": "uint256"
                }
            ],
            "name": "pickRandomThirdWord",
            "outputs": [
                {
                    "internalType": "string",
                    "name": "",
                    "type": "string"
                }
            ],
            "stateMutability": "view",
            "type": "function"
        },
        {
            "inputs": [
                {
                    "internalType": "address",
                    "name": "from",
                    "type": "address"
                },
                {
                    "internalType": "address",
                    "name": "to",
                    "type": "address"
                },
                {
                    "internalType": "uint256",
                    "name": "tokenId",
                    "type": "uint256"
                }
            ],
            "name": "safeTransferFrom",
            "outputs": [],
            "stateMutability": "nonpayable",
            "type": "function"
        },
        {
            "inputs": [
                {
                    "internalType": "address",
                    "name": "from",
                    "type": "address"
                },
                {
                    "internalType": "address",
                    "name": "to",
                    "type": "address"
                },
                {
                    "internalType": "uint256",
                    "name": "tokenId",
                    "type": "uint256"
                },
                {
                    "internalType": "bytes",
                    "name": "_data",
                    "type": "bytes"
                }
            ],
            "name": "safeTransferFrom",
            "outputs": [],
            "stateMutability": "nonpayable",
            "type": "function"
        },
        {
            "inputs": [
                {
                    "internalType": "address",
                    "name": "operator",
                    "type": "address"
                },
                {
                    "internalType": "bool",
                    "name": "approved",
                    "type": "bool"
                }
            ],
            "name": "setApprovalForAll",
            "outputs": [],
            "stateMutability": "nonpayable",
            "type": "function"
        },
        {
            "inputs": [
                {
                    "internalType": "bytes4",
                    "name": "interfaceId",
                    "type": "bytes4"
                }
            ],
            "name": "supportsInterface",
            "outputs": [
                {
                    "internalType": "bool",
                    "name": "",
                    "type": "bool"
                }
            ],
            "stateMutability": "view",
            "type": "function"
        },
        {
            "inputs": [],
            "name": "symbol",
            "outputs": [
                {
                    "internalType": "string",
                    "name": "",
                    "type": "string"
                }
            ],
            "stateMutability": "view",
            "type": "function"
        },
        {
            "inputs": [
                {
                    "internalType": "uint256",
                    "name": "tokenId",
                    "type": "uint256"
                }
            ],
            "name": "tokenURI",
            "outputs": [
                {
                    "internalType": "string",
                    "name": "",
                    "type": "string"
                }
            ],
            "stateMutability": "view",
            "type": "function"
        },
        {
            "inputs": [
                {
                    "internalType": "address",
                    "name": "from",
                    "type": "address"
                },
                {
                    "internalType": "address",
                    "name": "to",
                    "type": "address"
                },
                {
                    "internalType": "uint256",
                    "name": "tokenId",
                    "type": "uint256"
                }
            ],
            "name": "transferFrom",
            "outputs": [],
            "stateMutability": "nonpayable",
            "type": "function"
        }
    ],
    "bytecode": "0x608060405260405180610160016040528061012f815260200162003fc561012f9139600890805190602001906200003892919062000414565b5060405180608001604052806040518060400160405280600981526020017f46616e746173746963000000000000000000000000000000000000000000000081525081526020016040518060400160405280600481526020017f457069630000000000000000000000000000000000000000000000000000000081525081526020016040518060400160405280600881526020017f5465727269626c6500000000000000000000000000000000000000000000000081525081526020016040518060400160405280600581526020017f4372617a79000000000000000000000000000000000000000000000000000000815250815250600990600462000140929190620004a5565b5060405180608001604052806040518060400160405280600681526020017f4661697a616c000000000000000000000000000000000000000000000000000081525081526020016040518060400160405280600781526020017f4d6f6469204a690000000000000000000000000000000000000000000000000081525081526020016040518060400160405280600f81526020017f4361707461696e20416d6572696361000000000000000000000000000000000081525081526020016040518060400160405280600481526020017f54686f7200000000000000000000000000000000000000000000000000000000815250815250600a90600462000248929190620004a5565b503480156200025657600080fd5b506040518060400160405280600981526020017f4d79457069634e465400000000000000000000000000000000000000000000008152506040518060400160405280600581526020017f4d594e46540000000000000000000000000000000000000000000000000000008152508160009080519060200190620002db92919062000414565b508060019080519060200190620002f492919062000414565b505050620003426040518060400160405280601e81526020017f54686973206973206d79204e465420636f6e74726163742e2057686f612100008152506200034860201b62000ffb1760201c565b620006c6565b620003e8816040516024016200035f9190620005da565b6040516020818303038152906040527f41304fac000000000000000000000000000000000000000000000000000000007bffffffffffffffffffffffffffffffffffffffffffffffffffffffff19166020820180517bffffffffffffffffffffffffffffffffffffffffffffffffffffffff8381831617835250505050620003eb60201b60201c565b50565b60008151905060006a636f6e736f6c652e6c6f679050602083016000808483855afa5050505050565b828054620004229062000650565b90600052602060002090601f01602090048101928262000446576000855562000492565b82601f106200046157805160ff191683800117855562000492565b8280016001018555821562000492579182015b828111156200049157825182559160200191906001019062000474565b5b509050620004a191906200050c565b5090565b828054828255906000526020600020908101928215620004f9579160200282015b82811115620004f8578251829080519060200190620004e792919062000414565b5091602001919060010190620004c6565b5b5090506200050891906200052b565b5090565b5b80821115620005275760008160009055506001016200050d565b5090565b5b808211156200054f576000818162000545919062000553565b506001016200052c565b5090565b508054620005619062000650565b6000825580601f1062000575575062000596565b601f0160209004906000526020600020908101906200059591906200050c565b5b50565b6000620005a682620005fe565b620005b2818562000609565b9350620005c48185602086016200061a565b620005cf81620006b5565b840191505092915050565b60006020820190508181036000830152620005f6818462000599565b905092915050565b600081519050919050565b600082825260208201905092915050565b60005b838110156200063a5780820151818401526020810190506200061d565b838111156200064a576000848401525b50505050565b600060028204905060018216806200066957607f821691505b6020821081141562000680576200067f62000686565b5b50919050565b7f4e487b7100000000000000000000000000000000000000000000000000000000600052602260045260246000fd5b6000601f19601f8301169050919050565b6138ef80620006d66000396000f3fe608060405234801561001057600080fd5b50600436106101005760003560e01c806370a0823111610097578063c575757a11610066578063c575757a146102bd578063c87b56dd146102ed578063de9d132f1461031d578063e985e9c51461032757610100565b806370a082311461023757806395d89b4114610267578063a22cb46514610285578063b88d4fde146102a157610100565b806323b872dd116100d357806323b872dd1461019f5780632de38d68146101bb57806342842e0e146101eb5780636352211e1461020757610100565b806301ffc9a71461010557806306fdde0314610135578063081812fc14610153578063095ea7b314610183575b600080fd5b61011f600480360381019061011a91906123fb565b610357565b60405161012c9190612ae1565b60405180910390f35b61013d610439565b60405161014a9190612afc565b60405180910390f35b61016d6004803603810190610168919061244d565b6104cb565b60405161017a9190612a51565b60405180910390f35b61019d600480360381019061019891906123bf565b610550565b005b6101b960048036038101906101b491906122b9565b610668565b005b6101d560048036038101906101d0919061244d565b6106c8565b6040516101e29190612afc565b60405180910390f35b610205600480360381019061020091906122b9565b6107e6565b005b610221600480360381019061021c919061244d565b610806565b60405161022e9190612a51565b60405180910390f35b610251600480360381019061024c9190612254565b6108b8565b60405161025e9190612d5c565b60405180910390f35b61026f610970565b60405161027c9190612afc565b60405180910390f35b61029f600480360381019061029a9190612383565b610a02565b005b6102bb60048036038101906102b69190612308565b610a18565b005b6102d760048036038101906102d2919061244d565b610a7a565b6040516102e49190612afc565b60405180910390f35b6103076004803603810190610302919061244d565b610b98565b6040516103149190612afc565b60405180910390f35b610325610cea565b005b610341600480360381019061033c919061227d565b610f67565b60405161034e9190612ae1565b60405180910390f35b60007f80ac58cd000000000000000000000000000000000000000000000000000000007bffffffffffffffffffffffffffffffffffffffffffffffffffffffff1916827bffffffffffffffffffffffffffffffffffffffffffffffffffffffff1916148061042257507f5b5e139f000000000000000000000000000000000000000000000000000000007bffffffffffffffffffffffffffffffffffffffffffffffffffffffff1916827bffffffffffffffffffffffffffffffffffffffffffffffffffffffff1916145b80610432575061043182611094565b5b9050919050565b60606000805461044890612ff0565b80601f016020809104026020016040519081016040528092919081815260200182805461047490612ff0565b80156104c15780601f10610496576101008083540402835291602001916104c1565b820191906000526020600020905b8154815290600101906020018083116104a457829003601f168201915b5050505050905090565b60006104d6826110fe565b610515576040517f08c379a000000000000000000000000000000000000000000000000000000000815260040161050c90612cbc565b60405180910390fd5b6004600083815260200190815260200160002060009054906101000a900473ffffffffffffffffffffffffffffffffffffffff169050919050565b600061055b82610806565b90508073ffffffffffffffffffffffffffffffffffffffff168373ffffffffffffffffffffffffffffffffffffffff1614156105cc576040517f08c379a00000000000000000000000000000000000000000000000000000000081526004016105c390612d1c565b60405180910390fd5b8073ffffffffffffffffffffffffffffffffffffffff166105eb61116a565b73ffffffffffffffffffffffffffffffffffffffff16148061061a57506106198161061461116a565b610f67565b5b610659576040517f08c379a000000000000000000000000000000000000000000000000000000000815260040161065090612bfc565b60405180910390fd5b6106638383611172565b505050565b61067961067361116a565b8261122b565b6106b8576040517f08c379a00000000000000000000000000000000000000000000000000000000081526004016106af90612d3c565b60405180910390fd5b6106c3838383611309565b505050565b606060006106fc6106d884611565565b6040516020016106e89190612a0d565b604051602081830303815290604052611712565b90506009805490508161070f919061309c565b90506009818154811061074b577f4e487b7100000000000000000000000000000000000000000000000000000000600052603260045260246000fd5b90600052602060002001805461076090612ff0565b80601f016020809104026020016040519081016040528092919081815260200182805461078c90612ff0565b80156107d95780601f106107ae576101008083540402835291602001916107d9565b820191906000526020600020905b8154815290600101906020018083116107bc57829003601f168201915b5050505050915050919050565b61080183838360405180602001604052806000815250610a18565b505050565b6000806002600084815260200190815260200160002060009054906101000a900473ffffffffffffffffffffffffffffffffffffffff169050600073ffffffffffffffffffffffffffffffffffffffff168173ffffffffffffffffffffffffffffffffffffffff1614156108af576040517f08c379a00000000000000000000000000000000000000000000000000000000081526004016108a690612c3c565b60405180910390fd5b80915050919050565b60008073ffffffffffffffffffffffffffffffffffffffff168273ffffffffffffffffffffffffffffffffffffffff161415610929576040517f08c379a000000000000000000000000000000000000000000000000000000000815260040161092090612c1c565b60405180910390fd5b600360008373ffffffffffffffffffffffffffffffffffffffff1673ffffffffffffffffffffffffffffffffffffffff168152602001908152602001600020549050919050565b60606001805461097f90612ff0565b80601f01602080910402602001604051908101604052809291908181526020018280546109ab90612ff0565b80156109f85780601f106109cd576101008083540402835291602001916109f8565b820191906000526020600020905b8154815290600101906020018083116109db57829003601f168201915b5050505050905090565b610a14610a0d61116a565b8383611745565b5050565b610a29610a2361116a565b8361122b565b610a68576040517f08c379a0000000000000000000000000000000000000000000000000000000008152600401610a5f90612d3c565b60405180910390fd5b610a74848484846118b2565b50505050565b60606000610aae610a8a84611565565b604051602001610a9a91906129a6565b604051602081830303815290604052611712565b9050600a8054905081610ac1919061309c565b9050600a8181548110610afd577f4e487b7100000000000000000000000000000000000000000000000000000000600052603260045260246000fd5b906000526020600020018054610b1290612ff0565b80601f0160208091040260200160405190810160405280929190818152602001828054610b3e90612ff0565b8015610b8b5780601f10610b6057610100808354040283529160200191610b8b565b820191906000526020600020905b815481529060010190602001808311610b6e57829003601f168201915b5050505050915050919050565b6060610ba3826110fe565b610be2576040517f08c379a0000000000000000000000000000000000000000000000000000000008152600401610bd990612c9c565b60405180910390fd5b6000600660008481526020019081526020016000208054610c0290612ff0565b80601f0160208091040260200160405190810160405280929190818152602001828054610c2e90612ff0565b8015610c7b5780601f10610c5057610100808354040283529160200191610c7b565b820191906000526020600020905b815481529060010190602001808311610c5e57829003601f168201915b505050505090506000610c8c61190e565b9050600081511415610ca2578192505050610ce5565b600082511115610cd7578082604051602001610cbf929190612924565b60405160208183030381529060405292505050610ce5565b610ce084611925565b925050505b919050565b6000610cf660076119cc565b90506000610d03826106c8565b90506000610d1083610a7a565b905060008282604051602001610d27929190612924565b6040516020818303038152906040529050600060088484604051602001610d5093929190612948565b60405160208183030381529060405290506000610d9583610d70846119da565b604051602001610d819291906129c8565b6040516020818303038152906040526119da565b9050600081604051602001610daa9190612a2f565b6040516020818303038152906040529050610df96040518060400160405280601581526020017f0a2d2d2d2d2d2d2d2d2d2d2d2d2d2d2d2d2d2d2d2d0000000000000000000000815250610ffb565b610e0283610ffb565b610e406040518060400160405280601581526020017f2d2d2d2d2d2d2d2d2d2d2d2d2d2d2d2d2d2d2d2d0a0000000000000000000000815250610ffb565b610e4a3388611b98565b610e548782611bb6565b610e926040518060400160405280601581526020017f0a2d2d2d2d2d2d2d2d2d2d2d2d2d2d2d2d2d2d2d2d0000000000000000000000815250610ffb565b610eba81604051602001610ea69190612984565b604051602081830303815290604052610ffb565b610ef86040518060400160405280601581526020017f2d2d2d2d2d2d2d2d2d2d2d2d2d2d2d2d2d2d2d2d0a0000000000000000000000815250610ffb565b610f026007611c2a565b610f25604051806060016040528060258152602001613855602591398833611c40565b7febb98688741ffa4c7589bf325de30cf7becb63de567842e1ccdb6cb949fdc82c3388604051610f56929190612ab8565b60405180910390a150505050505050565b6000600560008473ffffffffffffffffffffffffffffffffffffffff1673ffffffffffffffffffffffffffffffffffffffff16815260200190815260200160002060008373ffffffffffffffffffffffffffffffffffffffff1673ffffffffffffffffffffffffffffffffffffffff16815260200190815260200160002060009054906101000a900460ff16905092915050565b6110918160405160240161100f9190612afc565b6040516020818303038152906040527f41304fac000000000000000000000000000000000000000000000000000000007bffffffffffffffffffffffffffffffffffffffffffffffffffffffff19166020820180517bffffffffffffffffffffffffffffffffffffffffffffffffffffffff8381831617835250505050611cdf565b50565b60007f01ffc9a7000000000000000000000000000000000000000000000000000000007bffffffffffffffffffffffffffffffffffffffffffffffffffffffff1916827bffffffffffffffffffffffffffffffffffffffffffffffffffffffff1916149050919050565b60008073ffffffffffffffffffffffffffffffffffffffff166002600084815260200190815260200160002060009054906101000a900473ffffffffffffffffffffffffffffffffffffffff1673ffffffffffffffffffffffffffffffffffffffff1614159050919050565b600033905090565b816004600083815260200190815260200160002060006101000a81548173ffffffffffffffffffffffffffffffffffffffff021916908373ffffffffffffffffffffffffffffffffffffffff160217905550808273ffffffffffffffffffffffffffffffffffffffff166111e583610806565b73ffffffffffffffffffffffffffffffffffffffff167f8c5be1e5ebec7d5bd14f71427d1e84f3dd0314c0f7b2291e5b200ac8c7c3b92560405160405180910390a45050565b6000611236826110fe565b611275576040517f08c379a000000000000000000000000000000000000000000000000000000000815260040161126c90612bdc565b60405180910390fd5b600061128083610806565b90508073ffffffffffffffffffffffffffffffffffffffff168473ffffffffffffffffffffffffffffffffffffffff1614806112ef57508373ffffffffffffffffffffffffffffffffffffffff166112d7846104cb565b73ffffffffffffffffffffffffffffffffffffffff16145b8061130057506112ff8185610f67565b5b91505092915050565b8273ffffffffffffffffffffffffffffffffffffffff1661132982610806565b73ffffffffffffffffffffffffffffffffffffffff161461137f576040517f08c379a000000000000000000000000000000000000000000000000000000000815260040161137690612cdc565b60405180910390fd5b600073ffffffffffffffffffffffffffffffffffffffff168273ffffffffffffffffffffffffffffffffffffffff1614156113ef576040517f08c379a00000000000000000000000000000000000000000000000000000000081526004016113e690612b9c565b60405180910390fd5b6113fa838383611d08565b611405600082611172565b6001600360008573ffffffffffffffffffffffffffffffffffffffff1673ffffffffffffffffffffffffffffffffffffffff16815260200190815260200160002060008282546114559190612f06565b925050819055506001600360008473ffffffffffffffffffffffffffffffffffffffff1673ffffffffffffffffffffffffffffffffffffffff16815260200190815260200160002060008282546114ac9190612e25565b92505081905550816002600083815260200190815260200160002060006101000a81548173ffffffffffffffffffffffffffffffffffffffff021916908373ffffffffffffffffffffffffffffffffffffffff160217905550808273ffffffffffffffffffffffffffffffffffffffff168473ffffffffffffffffffffffffffffffffffffffff167fddf252ad1be2c89b69c2b068fc378daa952ba7f163c4a11628f55a4df523b3ef60405160405180910390a4505050565b606060008214156115ad576040518060400160405280600181526020017f3000000000000000000000000000000000000000000000000000000000000000815250905061170d565b600082905060005b600082146115df5780806115c890613053565b915050600a826115d89190612e7b565b91506115b5565b60008167ffffffffffffffff811115611621577f4e487b7100000000000000000000000000000000000000000000000000000000600052604160045260246000fd5b6040519080825280601f01601f1916602001820160405280156116535781602001600182028036833780820191505090505b5090505b600085146117065760018261166c9190612f06565b9150600a8561167b919061309c565b60306116879190612e25565b60f81b8183815181106116c3577f4e487b7100000000000000000000000000000000000000000000000000000000600052603260045260246000fd5b60200101907effffffffffffffffffffffffffffffffffffffffffffffffffffffffffffff1916908160001a905350600a856116ff9190612e7b565b9450611657565b8093505050505b919050565b600081604051602001611725919061290d565b6040516020818303038152906040528051906020012060001c9050919050565b8173ffffffffffffffffffffffffffffffffffffffff168373ffffffffffffffffffffffffffffffffffffffff1614156117b4576040517f08c379a00000000000000000000000000000000000000000000000000000000081526004016117ab90612bbc565b60405180910390fd5b80600560008573ffffffffffffffffffffffffffffffffffffffff1673ffffffffffffffffffffffffffffffffffffffff16815260200190815260200160002060008473ffffffffffffffffffffffffffffffffffffffff1673ffffffffffffffffffffffffffffffffffffffff16815260200190815260200160002060006101000a81548160ff0219169083151502179055508173ffffffffffffffffffffffffffffffffffffffff168373ffffffffffffffffffffffffffffffffffffffff167f17307eab39ab6107e8899845ad3d59bd9653f200f220920489ca2b5937696c31836040516118a59190612ae1565b60405180910390a3505050565b6118bd848484611309565b6118c984848484611d0d565b611908576040517f08c379a00000000000000000000000000000000000000000000000000000000081526004016118ff90612b5c565b60405180910390fd5b50505050565b606060405180602001604052806000815250905090565b6060611930826110fe565b61196f576040517f08c379a000000000000000000000000000000000000000000000000000000000815260040161196690612cfc565b60405180910390fd5b600061197961190e565b9050600081511161199957604051806020016040528060008152506119c4565b806119a384611565565b6040516020016119b4929190612924565b6040516020818303038152906040525b915050919050565b600081600001549050919050565b60606000825190506000811415611a035760405180602001604052806000815250915050611b93565b60006003600283611a149190612e25565b611a1e9190612e7b565b6004611a2a9190612eac565b90506000602082611a3b9190612e25565b67ffffffffffffffff811115611a7a577f4e487b7100000000000000000000000000000000000000000000000000000000600052604160045260246000fd5b6040519080825280601f01601f191660200182016040528015611aac5781602001600182028036833780820191505090505b509050600060405180606001604052806040815260200161387a604091399050600181016020830160005b86811015611b505760038101905062ffffff818a015116603f8160121c168401518060081b905060ff603f83600c1c1686015116810190508060081b905060ff603f8360061c1686015116810190508060081b905060ff603f831686015116810190508060e01b90508084526004840193505050611ad7565b506003860660018114611b6a5760028114611b7a57611b85565b613d3d60f01b6002830352611b85565b603d60f81b60018303525b508484525050819450505050505b919050565b611bb2828260405180602001604052806000815250611ea4565b5050565b611bbf826110fe565b611bfe576040517f08c379a0000000000000000000000000000000000000000000000000000000008152600401611bf590612c5c565b60405180910390fd5b80600660008481526020019081526020016000209080519060200190611c259291906120e0565b505050565b6001816000016000828254019250508190555050565b611cda838383604051602401611c5893929190612b1e565b6040516020818303038152906040527fe3849f79000000000000000000000000000000000000000000000000000000007bffffffffffffffffffffffffffffffffffffffffffffffffffffffff19166020820180517bffffffffffffffffffffffffffffffffffffffffffffffffffffffff8381831617835250505050611cdf565b505050565b60008151905060006a636f6e736f6c652e6c6f679050602083016000808483855afa5050505050565b505050565b6000611d2e8473ffffffffffffffffffffffffffffffffffffffff16611eff565b15611e97578373ffffffffffffffffffffffffffffffffffffffff1663150b7a02611d5761116a565b8786866040518563ffffffff1660e01b8152600401611d799493929190612a6c565b602060405180830381600087803b158015611d9357600080fd5b505af1925050508015611dc457506040513d601f19601f82011682018060405250810190611dc19190612424565b60015b611e47573d8060008114611df4576040519150601f19603f3d011682016040523d82523d6000602084013e611df9565b606091505b50600081511415611e3f576040517f08c379a0000000000000000000000000000000000000000000000000000000008152600401611e3690612b5c565b60405180910390fd5b805181602001fd5b63150b7a0260e01b7bffffffffffffffffffffffffffffffffffffffffffffffffffffffff1916817bffffffffffffffffffffffffffffffffffffffffffffffffffffffff191614915050611e9c565b600190505b949350505050565b611eae8383611f12565b611ebb6000848484611d0d565b611efa576040517f08c379a0000000000000000000000000000000000000000000000000000000008152600401611ef190612b5c565b60405180910390fd5b505050565b600080823b905060008111915050919050565b600073ffffffffffffffffffffffffffffffffffffffff168273ffffffffffffffffffffffffffffffffffffffff161415611f82576040517f08c379a0000000000000000000000000000000000000000000000000000000008152600401611f7990612c7c565b60405180910390fd5b611f8b816110fe565b15611fcb576040517f08c379a0000000000000000000000000000000000000000000000000000000008152600401611fc290612b7c565b60405180910390fd5b611fd760008383611d08565b6001600360008473ffffffffffffffffffffffffffffffffffffffff1673ffffffffffffffffffffffffffffffffffffffff16815260200190815260200160002060008282546120279190612e25565b92505081905550816002600083815260200190815260200160002060006101000a81548173ffffffffffffffffffffffffffffffffffffffff021916908373ffffffffffffffffffffffffffffffffffffffff160217905550808273ffffffffffffffffffffffffffffffffffffffff16600073ffffffffffffffffffffffffffffffffffffffff167fddf252ad1be2c89b69c2b068fc378daa952ba7f163c4a11628f55a4df523b3ef60405160405180910390a45050565b8280546120ec90612ff0565b90600052602060002090601f01602090048101928261210e5760008555612155565b82601f1061212757805160ff1916838001178555612155565b82800160010185558215612155579182015b82811115612154578251825591602001919060010190612139565b5b5090506121629190612166565b5090565b5b8082111561217f576000816000905550600101612167565b5090565b600061219661219184612d9c565b612d77565b9050828152602081018484840111156121ae57600080fd5b6121b9848285612fae565b509392505050565b6000813590506121d0816137f8565b92915050565b6000813590506121e58161380f565b92915050565b6000813590506121fa81613826565b92915050565b60008151905061220f81613826565b92915050565b600082601f83011261222657600080fd5b8135612236848260208601612183565b91505092915050565b60008135905061224e8161383d565b92915050565b60006020828403121561226657600080fd5b6000612274848285016121c1565b91505092915050565b6000806040838503121561229057600080fd5b600061229e858286016121c1565b92505060206122af858286016121c1565b9150509250929050565b6000806000606084860312156122ce57600080fd5b60006122dc868287016121c1565b93505060206122ed868287016121c1565b92505060406122fe8682870161223f565b9150509250925092565b6000806000806080858703121561231e57600080fd5b600061232c878288016121c1565b945050602061233d878288016121c1565b935050604061234e8782880161223f565b925050606085013567ffffffffffffffff81111561236b57600080fd5b61237787828801612215565b91505092959194509250565b6000806040838503121561239657600080fd5b60006123a4858286016121c1565b92505060206123b5858286016121d6565b9150509250929050565b600080604083850312156123d257600080fd5b60006123e0858286016121c1565b92505060206123f18582860161223f565b9150509250929050565b60006020828403121561240d57600080fd5b600061241b848285016121eb565b91505092915050565b60006020828403121561243657600080fd5b600061244484828501612200565b91505092915050565b60006020828403121561245f57600080fd5b600061246d8482850161223f565b91505092915050565b61247f81612f3a565b82525050565b61248e81612f4c565b82525050565b600061249f82612de2565b6124a98185612df8565b93506124b9818560208601612fbd565b6124c281613189565b840191505092915050565b60006124d882612ded565b6124e28185612e09565b93506124f2818560208601612fbd565b6124fb81613189565b840191505092915050565b600061251182612ded565b61251b8185612e1a565b935061252b818560208601612fbd565b80840191505092915050565b6000815461254481612ff0565b61254e8186612e1a565b94506001821660008114612569576001811461257a576125ad565b60ff198316865281860193506125ad565b61258385612dcd565b60005b838110156125a557815481890152600182019150602081019050612586565b838801955050505b50505092915050565b60006125c3602583612e1a565b91506125ce8261319a565b602582019050919050565b60006125e6603283612e09565b91506125f1826131e9565b604082019050919050565b6000612609601c83612e09565b915061261482613238565b602082019050919050565b600061262c600a83612e1a565b915061263782613261565b600a82019050919050565b600061264f602483612e09565b915061265a8261328a565b604082019050919050565b6000612672601983612e09565b915061267d826132d9565b602082019050919050565b6000612695606383612e1a565b91506126a082613302565b606382019050919050565b60006126b8602c83612e09565b91506126c38261339d565b604082019050919050565b60006126db600d83612e1a565b91506126e6826133ec565b600d82019050919050565b60006126fe603883612e09565b915061270982613415565b604082019050919050565b6000612721602a83612e09565b915061272c82613464565b604082019050919050565b6000612744602983612e09565b915061274f826134b3565b604082019050919050565b6000612767602e83612e09565b915061277282613502565b604082019050919050565b600061278a600283612e1a565b915061279582613551565b600282019050919050565b60006127ad602083612e09565b91506127b88261357a565b602082019050919050565b60006127d0603183612e09565b91506127db826135a3565b604082019050919050565b60006127f3602c83612e09565b91506127fe826135f2565b604082019050919050565b6000612816602983612e09565b915061282182613641565b604082019050919050565b6000612839602f83612e09565b915061284482613690565b604082019050919050565b600061285c600a83612e1a565b9150612867826136df565b600a82019050919050565b600061287f602183612e09565b915061288a82613708565b604082019050919050565b60006128a2600a83612e1a565b91506128ad82613757565b600a82019050919050565b60006128c5601d83612e1a565b91506128d082613780565b601d82019050919050565b60006128e8603183612e09565b91506128f3826137a9565b604082019050919050565b61290781612fa4565b82525050565b60006129198284612506565b915081905092915050565b60006129308285612506565b915061293c8284612506565b91508190509392505050565b60006129548286612537565b91506129608285612506565b915061296c8284612506565b9150612977826126ce565b9150819050949350505050565b600061298f826125b6565b915061299b8284612506565b915081905092915050565b60006129b18261261f565b91506129bd8284612506565b915081905092915050565b60006129d38261284f565b91506129df8285612506565b91506129ea82612688565b91506129f68284612506565b9150612a018261277d565b91508190509392505050565b6000612a1882612895565b9150612a248284612506565b915081905092915050565b6000612a3a826128b8565b9150612a468284612506565b915081905092915050565b6000602082019050612a666000830184612476565b92915050565b6000608082019050612a816000830187612476565b612a8e6020830186612476565b612a9b60408301856128fe565b8181036060830152612aad8184612494565b905095945050505050565b6000604082019050612acd6000830185612476565b612ada60208301846128fe565b9392505050565b6000602082019050612af66000830184612485565b92915050565b60006020820190508181036000830152612b1681846124cd565b905092915050565b60006060820190508181036000830152612b3881866124cd565b9050612b4760208301856128fe565b612b546040830184612476565b949350505050565b60006020820190508181036000830152612b75816125d9565b9050919050565b60006020820190508181036000830152612b95816125fc565b9050919050565b60006020820190508181036000830152612bb581612642565b9050919050565b60006020820190508181036000830152612bd581612665565b9050919050565b60006020820190508181036000830152612bf5816126ab565b9050919050565b60006020820190508181036000830152612c15816126f1565b9050919050565b60006020820190508181036000830152612c3581612714565b9050919050565b60006020820190508181036000830152612c5581612737565b9050919050565b60006020820190508181036000830152612c758161275a565b9050919050565b60006020820190508181036000830152612c95816127a0565b9050919050565b60006020820190508181036000830152612cb5816127c3565b9050919050565b60006020820190508181036000830152612cd5816127e6565b9050919050565b60006020820190508181036000830152612cf581612809565b9050919050565b60006020820190508181036000830152612d158161282c565b9050919050565b60006020820190508181036000830152612d3581612872565b9050919050565b60006020820190508181036000830152612d55816128db565b9050919050565b6000602082019050612d7160008301846128fe565b92915050565b6000612d81612d92565b9050612d8d8282613022565b919050565b6000604051905090565b600067ffffffffffffffff821115612db757612db661315a565b5b612dc082613189565b9050602081019050919050565b60008190508160005260206000209050919050565b600081519050919050565b600081519050919050565b600082825260208201905092915050565b600082825260208201905092915050565b600081905092915050565b6000612e3082612fa4565b9150612e3b83612fa4565b9250827fffffffffffffffffffffffffffffffffffffffffffffffffffffffffffffffff03821115612e7057612e6f6130cd565b5b828201905092915050565b6000612e8682612fa4565b9150612e9183612fa4565b925082612ea157612ea06130fc565b5b828204905092915050565b6000612eb782612fa4565b9150612ec283612fa4565b9250817fffffffffffffffffffffffffffffffffffffffffffffffffffffffffffffffff0483118215151615612efb57612efa6130cd565b5b828202905092915050565b6000612f1182612fa4565b9150612f1c83612fa4565b925082821015612f2f57612f2e6130cd565b5b828203905092915050565b6000612f4582612f84565b9050919050565b60008115159050919050565b60007fffffffff0000000000000000000000000000000000000000000000000000000082169050919050565b600073ffffffffffffffffffffffffffffffffffffffff82169050919050565b6000819050919050565b82818337600083830152505050565b60005b83811015612fdb578082015181840152602081019050612fc0565b83811115612fea576000848401525b50505050565b6000600282049050600182168061300857607f821691505b6020821081141561301c5761301b61312b565b5b50919050565b61302b82613189565b810181811067ffffffffffffffff8211171561304a5761304961315a565b5b80604052505050565b600061305e82612fa4565b91507fffffffffffffffffffffffffffffffffffffffffffffffffffffffffffffffff821415613091576130906130cd565b5b600182019050919050565b60006130a782612fa4565b91506130b283612fa4565b9250826130c2576130c16130fc565b5b828206905092915050565b7f4e487b7100000000000000000000000000000000000000000000000000000000600052601160045260246000fd5b7f4e487b7100000000000000000000000000000000000000000000000000000000600052601260045260246000fd5b7f4e487b7100000000000000000000000000000000000000000000000000000000600052602260045260246000fd5b7f4e487b7100000000000000000000000000000000000000000000000000000000600052604160045260246000fd5b6000601f19601f8301169050919050565b7f68747470733a2f2f6e6674707265766965772e30786465762e636f6465732f3f60008201527f636f64653d000000000000000000000000000000000000000000000000000000602082015250565b7f4552433732313a207472616e7366657220746f206e6f6e20455243373231526560008201527f63656976657220696d706c656d656e7465720000000000000000000000000000602082015250565b7f4552433732313a20746f6b656e20616c7265616479206d696e74656400000000600082015250565b7f54484952445f574f524400000000000000000000000000000000000000000000600082015250565b7f4552433732313a207472616e7366657220746f20746865207a65726f2061646460008201527f7265737300000000000000000000000000000000000000000000000000000000602082015250565b7f4552433732313a20617070726f766520746f2063616c6c657200000000000000600082015250565b7f222c20226465736372697074696f6e223a20224120686967686c79206163636c60008201527f61696d656420636f6c6c656374696f6e206f6620737175617265732e222c202260208201527f696d616765223a2022646174613a696d6167652f7376672b786d6c3b6261736560408201527f36342c0000000000000000000000000000000000000000000000000000000000606082015250565b7f4552433732313a206f70657261746f7220717565727920666f72206e6f6e657860008201527f697374656e7420746f6b656e0000000000000000000000000000000000000000602082015250565b7f3c2f746578743e3c2f7376673e00000000000000000000000000000000000000600082015250565b7f4552433732313a20617070726f76652063616c6c6572206973206e6f74206f7760008201527f6e6572206e6f7220617070726f76656420666f7220616c6c0000000000000000602082015250565b7f4552433732313a2062616c616e636520717565727920666f7220746865207a6560008201527f726f206164647265737300000000000000000000000000000000000000000000602082015250565b7f4552433732313a206f776e657220717565727920666f72206e6f6e657869737460008201527f656e7420746f6b656e0000000000000000000000000000000000000000000000602082015250565b7f45524337323155524953746f726167653a2055524920736574206f66206e6f6e60008201527f6578697374656e7420746f6b656e000000000000000000000000000000000000602082015250565b7f227d000000000000000000000000000000000000000000000000000000000000600082015250565b7f4552433732313a206d696e7420746f20746865207a65726f2061646472657373600082015250565b7f45524337323155524953746f726167653a2055524920717565727920666f722060008201527f6e6f6e6578697374656e7420746f6b656e000000000000000000000000000000602082015250565b7f4552433732313a20617070726f76656420717565727920666f72206e6f6e657860008201527f697374656e7420746f6b656e0000000000000000000000000000000000000000602082015250565b7f4552433732313a207472616e73666572206f6620746f6b656e2074686174206960008201527f73206e6f74206f776e0000000000000000000000000000000000000000000000602082015250565b7f4552433732314d657461646174613a2055524920717565727920666f72206e6f60008201527f6e6578697374656e7420746f6b656e0000000000000000000000000000000000602082015250565b7f7b226e616d65223a202200000000000000000000000000000000000000000000600082015250565b7f4552433732313a20617070726f76616c20746f2063757272656e74206f776e6560008201527f7200000000000000000000000000000000000000000000000000000000000000602082015250565b7f46495253545f574f524400000000000000000000000000000000000000000000600082015250565b7f646174613a6170706c69636174696f6e2f6a736f6e3b6261736536342c000000600082015250565b7f4552433732313a207472616e736665722063616c6c6572206973206e6f74206f60008201527f776e6572206e6f7220617070726f766564000000000000000000000000000000602082015250565b61380181612f3a565b811461380c57600080fd5b50565b61381881612f4c565b811461382357600080fd5b50565b61382f81612f58565b811461383a57600080fd5b50565b61384681612fa4565b811461385157600080fd5b5056fe416e204e465420772f20494420257320686173206265656e206d696e74656420746f2025734142434445464748494a4b4c4d4e4f505152535455565758595a6162636465666768696a6b6c6d6e6f707172737475767778797a303132333435363738392b2fa26469706673582212204b04450f292965f84f96c8151c64b791b51c8e1996efc444dfdeae149ab278ea64736f6c634300080400333c73766720786d6c6e733d27687474703a2f2f7777772e77332e6f72672f323030302f73766727207072657365727665417370656374526174696f3d27784d696e594d696e206d656574272076696577426f783d273020302033353020333530273e3c7374796c653e2e62617365207b2066696c6c3a2077686974653b20666f6e742d66616d696c793a2073657269663b20666f6e742d73697a653a20323470783b207d3c2f7374796c653e3c726563742077696474683d273130302527206865696768743d2731303025272066696c6c3d27626c61636b27202f3e3c7465787420783d273530252720793d273530252720636c6173733d27626173652720646f6d696e616e742d626173656c696e653d276d6964646c652720746578742d616e63686f723d276d6964646c65273e",
    "linkReferences": {},
    "deployedLinkReferences": {}
}